{
  "contractName": "Election",
  "abi": [
    {
      "inputs": [],
      "stateMutability": "nonpayable",
      "type": "constructor"
    },
    {
      "inputs": [],
      "name": "candidateCount",
      "outputs": [
        {
          "internalType": "uint256",
          "name": "",
          "type": "uint256"
        }
      ],
      "stateMutability": "view",
      "type": "function",
      "constant": true
    },
    {
      "inputs": [
        {
          "internalType": "uint256",
          "name": "",
          "type": "uint256"
        }
      ],
      "name": "candidates",
      "outputs": [
        {
          "internalType": "uint256",
          "name": "id",
          "type": "uint256"
        },
        {
          "internalType": "string",
          "name": "name",
          "type": "string"
        },
        {
          "internalType": "uint256",
          "name": "voteCount",
          "type": "uint256"
        }
      ],
      "stateMutability": "view",
      "type": "function",
      "constant": true
    },
    {
      "inputs": [],
      "name": "allCandidates",
      "outputs": [
        {
          "components": [
            {
              "internalType": "uint256",
              "name": "id",
              "type": "uint256"
            },
            {
              "internalType": "string",
              "name": "name",
              "type": "string"
            },
            {
              "internalType": "uint256",
              "name": "voteCount",
              "type": "uint256"
            }
          ],
          "internalType": "struct Election.Candidate[]",
          "name": "",
          "type": "tuple[]"
        }
      ],
      "stateMutability": "view",
      "type": "function",
      "constant": true
    }
  ],
  "bytecode": "0x608060405234801561001057600080fd5b506100556040518060400160405280600b81526020017f43616e646964617465203100000000000000000000000000000000000000000081525061009e60201b60201c565b6100996040518060400160405280600b81526020017f43616e646964617465203200000000000000000000000000000000000000000081525061009e60201b60201c565b6102bb565b600160008154809291906100b190610211565b919050555060006040518060600160405280600154815260200183815260200160008152509080600181540180825580915050600190039060005260206000209060030201600090919091909150600082015181600001556020820151816001019080519060200190610125929190610135565b5060408201518160020155505050565b82805461014190610289565b90600052602060002090601f01602090048101928261016357600085556101aa565b82601f1061017c57805160ff19168380011785556101aa565b828001600101855582156101aa579182015b828111156101a957825182559160200191906001019061018e565b5b5090506101b791906101bb565b5090565b5b808211156101d45760008160009055506001016101bc565b5090565b7f4e487b7100000000000000000000000000000000000000000000000000000000600052601160045260246000fd5b6000819050919050565b600061021c82610207565b91507fffffffffffffffffffffffffffffffffffffffffffffffffffffffffffffffff82141561024f5761024e6101d8565b5b600182019050919050565b7f4e487b7100000000000000000000000000000000000000000000000000000000600052602260045260246000fd5b600060028204905060018216806102a157607f821691505b602082108114156102b5576102b461025a565b5b50919050565b61060e806102ca6000396000f3fe608060405234801561001057600080fd5b50600436106100415760003560e01c80633477ee2e1461004657806381c4071514610078578063a9a981a314610096575b600080fd5b610060600480360381019061005b91906102bc565b6100b4565b60405161006f93929190610391565b60405180910390f35b610080610176565b60405161008d919061053a565b60405180910390f35b61009e61027b565b6040516100ab919061055c565b60405180910390f35b600081815481106100c457600080fd5b90600052602060002090600302016000915090508060000154908060010180546100ed906105a6565b80601f0160208091040260200160405190810160405280929190818152602001828054610119906105a6565b80156101665780601f1061013b57610100808354040283529160200191610166565b820191906000526020600020905b81548152906001019060200180831161014957829003601f168201915b5050505050908060020154905083565b60606000805480602002602001604051908101604052809291908181526020016000905b828210156102725783829060005260206000209060030201604051806060016040529081600082015481526020016001820180546101d7906105a6565b80601f0160208091040260200160405190810160405280929190818152602001828054610203906105a6565b80156102505780601f1061022557610100808354040283529160200191610250565b820191906000526020600020905b81548152906001019060200180831161023357829003601f168201915b505050505081526020016002820154815250508152602001906001019061019a565b50505050905090565b60015481565b600080fd5b6000819050919050565b61029981610286565b81146102a457600080fd5b50565b6000813590506102b681610290565b92915050565b6000602082840312156102d2576102d1610281565b5b60006102e0848285016102a7565b91505092915050565b6102f281610286565b82525050565b600081519050919050565b600082825260208201905092915050565b60005b83811015610332578082015181840152602081019050610317565b83811115610341576000848401525b50505050565b6000601f19601f8301169050919050565b6000610363826102f8565b61036d8185610303565b935061037d818560208601610314565b61038681610347565b840191505092915050565b60006060820190506103a660008301866102e9565b81810360208301526103b88185610358565b90506103c760408301846102e9565b949350505050565b600081519050919050565b600082825260208201905092915050565b6000819050602082019050919050565b61040481610286565b82525050565b600082825260208201905092915050565b6000610426826102f8565b610430818561040a565b9350610440818560208601610314565b61044981610347565b840191505092915050565b600060608301600083015161046c60008601826103fb565b5060208301518482036020860152610484828261041b565b915050604083015161049960408601826103fb565b508091505092915050565b60006104b08383610454565b905092915050565b6000602082019050919050565b60006104d0826103cf565b6104da81856103da565b9350836020820285016104ec856103eb565b8060005b85811015610528578484038952815161050985826104a4565b9450610514836104b8565b925060208a019950506001810190506104f0565b50829750879550505050505092915050565b6000602082019050818103600083015261055481846104c5565b905092915050565b600060208201905061057160008301846102e9565b92915050565b7f4e487b7100000000000000000000000000000000000000000000000000000000600052602260045260246000fd5b600060028204905060018216806105be57607f821691505b602082108114156105d2576105d1610577565b5b5091905056fea2646970667358221220cbd4936f36e680ca79ae9cec282d6ffb207726e81df9da9c00a4a8401525301964736f6c634300080a0033",
  "immutableReferences": {},
  "source": "// SPDX-License-Identifier: MIT\r\npragma solidity ^0.8.6;\r\n\r\ncontract Election {\r\n    // model of candidate\r\n    struct Candidate {\r\n        uint256 id;\r\n        string name;\r\n        uint256 voteCount;\r\n    }\r\n\r\n    //stroring and fetching candidate\r\n    // mapping(uint256 => Candidate) public candidates;\r\n    Candidate[] public candidates;\r\n    // candidate counts\r\n    uint256 public candidateCount;\r\n\r\n    // adding candidate\r\n    function addCandidate(string memory _name) private {\r\n        candidateCount++;\r\n        // 0 because intital vote count of any candidate is 0\r\n        // candidates[candidateCount] = Candidate(candidateCount, _name, 0);\r\n        candidates.push(Candidate(candidateCount, _name, 0));\r\n    }\r\n\r\n    function allCandidates() public view returns (Candidate[] memory) {\r\n        return candidates;\r\n    }\r\n\r\n    // Constructor\r\n    // -> read candiate and store candidate\r\n\r\n    constructor() {\r\n        addCandidate(\"Candidate 1\");\r\n        addCandidate(\"Candidate 2\");\r\n    }\r\n}\r\n",
  "sourcePath": "D:\\Course\\BlockChain\\Projects\\proj3-with-frontend\\contracts\\Election.sol",
  "compiler": {
    "name": "solc",
    "version": "0.8.10+commit.fc410830.Emscripten.clang"
  },
  "schemaVersion": "3.4.3",
  "updatedAt": "2021-12-11T11:57:12.328Z",
  "networkType": "ethereum",
  "devdoc": {
    "kind": "dev",
    "methods": {},
    "version": 1
  },
  "userdoc": {
    "kind": "user",
    "methods": {},
    "version": 1
  }
}