{
  "contractName": "Election",
  "abi": [
    {
      "inputs": [],
      "stateMutability": "nonpayable",
      "type": "constructor"
    },
    {
      "inputs": [],
      "name": "candidateCount",
      "outputs": [
        {
          "internalType": "uint256",
          "name": "",
          "type": "uint256"
        }
      ],
      "stateMutability": "view",
      "type": "function",
      "constant": true
    },
    {
      "inputs": [
        {
          "internalType": "uint256",
          "name": "",
          "type": "uint256"
        }
      ],
      "name": "candidates",
      "outputs": [
        {
          "internalType": "uint256",
          "name": "id",
          "type": "uint256"
        },
        {
          "internalType": "string",
          "name": "name",
          "type": "string"
        },
        {
          "internalType": "uint256",
          "name": "voteCount",
          "type": "uint256"
        }
      ],
      "stateMutability": "view",
      "type": "function",
      "constant": true
    },
    {
      "inputs": [
        {
          "internalType": "address",
          "name": "",
          "type": "address"
        }
      ],
      "name": "voterMapping",
      "outputs": [
        {
          "internalType": "uint256",
          "name": "",
          "type": "uint256"
        }
      ],
      "stateMutability": "view",
      "type": "function",
      "constant": true
    },
    {
      "inputs": [],
      "name": "allCandidates",
      "outputs": [
        {
          "components": [
            {
              "internalType": "uint256",
              "name": "id",
              "type": "uint256"
            },
            {
              "internalType": "string",
              "name": "name",
              "type": "string"
            },
            {
              "internalType": "uint256",
              "name": "voteCount",
              "type": "uint256"
            }
          ],
          "internalType": "struct Election.Candidate[]",
          "name": "",
          "type": "tuple[]"
        }
      ],
      "stateMutability": "view",
      "type": "function",
      "constant": true
    },
    {
      "inputs": [
        {
          "internalType": "uint256",
          "name": "_candidateId",
          "type": "uint256"
        }
      ],
      "name": "vote",
      "outputs": [],
      "stateMutability": "nonpayable",
      "type": "function"
    }
  ],
  "bytecode": "0x60806040523480156200001157600080fd5b50620000586040518060400160405280600b81526020017f43616e6469646174652031000000000000000000000000000000000000000000815250620000a460201b60201c565b6200009e6040518060400160405280600b81526020017f43616e6469646174652032000000000000000000000000000000000000000000815250620000a460201b60201c565b620002db565b60026000815480929190620000b99062000228565b9190505550600160405180606001604052806002548152602001838152602001600081525090806001815401808255809150506001900390600052602060002090600302016000909190919091506000820151816000015560208201518160010190805190602001906200012f9291906200013f565b5060408201518160020155505050565b8280546200014d90620002a5565b90600052602060002090601f016020900481019282620001715760008555620001bd565b82601f106200018c57805160ff1916838001178555620001bd565b82800160010185558215620001bd579182015b82811115620001bc5782518255916020019190600101906200019f565b5b509050620001cc9190620001d0565b5090565b5b80821115620001eb576000816000905550600101620001d1565b5090565b7f4e487b7100000000000000000000000000000000000000000000000000000000600052601160045260246000fd5b6000819050919050565b600062000235826200021e565b91507fffffffffffffffffffffffffffffffffffffffffffffffffffffffffffffffff8214156200026b576200026a620001ef565b5b600182019050919050565b7f4e487b7100000000000000000000000000000000000000000000000000000000600052602260045260246000fd5b60006002820490506001821680620002be57607f821691505b60208210811415620002d557620002d462000276565b5b50919050565b61096f80620002eb6000396000f3fe608060405234801561001057600080fd5b50600436106100575760003560e01c80630121b93f1461005c5780630dc968b8146100785780633477ee2e146100a857806381c40715146100da578063a9a981a3146100f8575b600080fd5b6100766004803603810190610071919061048d565b610116565b005b610092600480360381019061008d9190610518565b61026d565b60405161009f9190610554565b60405180910390f35b6100c260048036038101906100bd919061048d565b610285565b6040516100d193929190610608565b60405180910390f35b6100e2610347565b6040516100ef91906107b1565b60405180910390f35b61010061044c565b60405161010d9190610554565b60405180910390f35b60008060003373ffffffffffffffffffffffffffffffffffffffff1673ffffffffffffffffffffffffffffffffffffffff16815260200190815260200160002054146101e1576001806000803373ffffffffffffffffffffffffffffffffffffffff1673ffffffffffffffffffffffffffffffffffffffff168152602001908152602001600020546101a89190610802565b815481106101b9576101b8610836565b5b906000526020600020906003020160020160008154809291906101db90610865565b91905055505b806000803373ffffffffffffffffffffffffffffffffffffffff1673ffffffffffffffffffffffffffffffffffffffff16815260200190815260200160002081905550600180826102329190610802565b8154811061024357610242610836565b5b906000526020600020906003020160020160008154809291906102659061088f565b919050555050565b60006020528060005260406000206000915090505481565b6001818154811061029557600080fd5b90600052602060002090600302016000915090508060000154908060010180546102be90610907565b80601f01602080910402602001604051908101604052809291908181526020018280546102ea90610907565b80156103375780601f1061030c57610100808354040283529160200191610337565b820191906000526020600020905b81548152906001019060200180831161031a57829003601f168201915b5050505050908060020154905083565b60606001805480602002602001604051908101604052809291908181526020016000905b828210156104435783829060005260206000209060030201604051806060016040529081600082015481526020016001820180546103a890610907565b80601f01602080910402602001604051908101604052809291908181526020018280546103d490610907565b80156104215780601f106103f657610100808354040283529160200191610421565b820191906000526020600020905b81548152906001019060200180831161040457829003601f168201915b505050505081526020016002820154815250508152602001906001019061036b565b50505050905090565b60025481565b600080fd5b6000819050919050565b61046a81610457565b811461047557600080fd5b50565b60008135905061048781610461565b92915050565b6000602082840312156104a3576104a2610452565b5b60006104b184828501610478565b91505092915050565b600073ffffffffffffffffffffffffffffffffffffffff82169050919050565b60006104e5826104ba565b9050919050565b6104f5816104da565b811461050057600080fd5b50565b600081359050610512816104ec565b92915050565b60006020828403121561052e5761052d610452565b5b600061053c84828501610503565b91505092915050565b61054e81610457565b82525050565b60006020820190506105696000830184610545565b92915050565b600081519050919050565b600082825260208201905092915050565b60005b838110156105a957808201518184015260208101905061058e565b838111156105b8576000848401525b50505050565b6000601f19601f8301169050919050565b60006105da8261056f565b6105e4818561057a565b93506105f481856020860161058b565b6105fd816105be565b840191505092915050565b600060608201905061061d6000830186610545565b818103602083015261062f81856105cf565b905061063e6040830184610545565b949350505050565b600081519050919050565b600082825260208201905092915050565b6000819050602082019050919050565b61067b81610457565b82525050565b600082825260208201905092915050565b600061069d8261056f565b6106a78185610681565b93506106b781856020860161058b565b6106c0816105be565b840191505092915050565b60006060830160008301516106e36000860182610672565b50602083015184820360208601526106fb8282610692565b91505060408301516107106040860182610672565b508091505092915050565b600061072783836106cb565b905092915050565b6000602082019050919050565b600061074782610646565b6107518185610651565b93508360208202850161076385610662565b8060005b8581101561079f5784840389528151610780858261071b565b945061078b8361072f565b925060208a01995050600181019050610767565b50829750879550505050505092915050565b600060208201905081810360008301526107cb818461073c565b905092915050565b7f4e487b7100000000000000000000000000000000000000000000000000000000600052601160045260246000fd5b600061080d82610457565b915061081883610457565b92508282101561082b5761082a6107d3565b5b828203905092915050565b7f4e487b7100000000000000000000000000000000000000000000000000000000600052603260045260246000fd5b600061087082610457565b91506000821415610884576108836107d3565b5b600182039050919050565b600061089a82610457565b91507fffffffffffffffffffffffffffffffffffffffffffffffffffffffffffffffff8214156108cd576108cc6107d3565b5b600182019050919050565b7f4e487b7100000000000000000000000000000000000000000000000000000000600052602260045260246000fd5b6000600282049050600182168061091f57607f821691505b60208210811415610933576109326108d8565b5b5091905056fea2646970667358221220a38608a0367acf78ab4fcd75ede9c71c8270ab44000e841e0c40e8e8e22dd02764736f6c634300080a0033",
  "immutableReferences": {},
  "source": "// SPDX-License-Identifier: MIT\r\npragma solidity ^0.8.6;\r\n\r\ncontract Election {\r\n    // model of candidate\r\n    struct Candidate {\r\n        uint256 id;\r\n        string name;\r\n        uint256 voteCount;\r\n    }\r\n\r\n    //stroring and fetching candidate\r\n    mapping(address => uint256) public voterMapping;\r\n    Candidate[] public candidates;\r\n    // candidate counts\r\n    uint256 public candidateCount;\r\n\r\n    // adding candidate\r\n    function addCandidate(string memory _name) private {\r\n        candidateCount++;\r\n        // 0 because intital vote count of any candidate is 0\r\n        // candidates[candidateCount] = Candidate(candidateCount, _name, 0);\r\n        candidates.push(Candidate(candidateCount, _name, 0));\r\n    }\r\n\r\n    function allCandidates() public view returns (Candidate[] memory) {\r\n        return candidates;\r\n    }\r\n\r\n    function vote(uint256 _candidateId) public {\r\n        if (voterMapping[msg.sender] != 0) {\r\n            candidates[voterMapping[msg.sender] - 1].voteCount--;\r\n        }\r\n        voterMapping[msg.sender] = _candidateId;\r\n        candidates[_candidateId - 1].voteCount++;\r\n    }\r\n\r\n    // Constructor\r\n    // -> read candiate and store candidate\r\n\r\n    constructor() {\r\n        addCandidate(\"Candidate 1\");\r\n        addCandidate(\"Candidate 2\");\r\n    }\r\n}\r\n",
  "sourcePath": "D:\\Course\\BlockChain\\Projects\\proj3-with-frontend\\contracts\\Election.sol",
  "compiler": {
    "name": "solc",
    "version": "0.8.10+commit.fc410830.Emscripten.clang"
  },
  "schemaVersion": "3.4.3",
  "updatedAt": "2021-12-11T16:09:24.921Z",
  "networkType": "ethereum",
  "devdoc": {
    "kind": "dev",
    "methods": {},
    "version": 1
  },
  "userdoc": {
    "kind": "user",
    "methods": {},
    "version": 1
  }
}