{
  "contractName": "Election",
  "abi": [
    {
      "inputs": [],
      "stateMutability": "nonpayable",
      "type": "constructor"
    },
    {
      "inputs": [],
      "name": "candidate",
      "outputs": [
        {
          "internalType": "string",
          "name": "",
          "type": "string"
        }
      ],
      "stateMutability": "view",
      "type": "function"
    },
    {
      "inputs": [],
      "name": "candidateCount",
      "outputs": [
        {
          "internalType": "uint256",
          "name": "",
          "type": "uint256"
        }
      ],
      "stateMutability": "view",
      "type": "function"
    },
    {
      "inputs": [
        {
          "internalType": "uint256",
          "name": "",
          "type": "uint256"
        }
      ],
      "name": "candidates",
      "outputs": [
        {
          "internalType": "uint256",
          "name": "id",
          "type": "uint256"
        },
        {
          "internalType": "string",
          "name": "name",
          "type": "string"
        },
        {
          "internalType": "uint256",
          "name": "voteCount",
          "type": "uint256"
        }
      ],
      "stateMutability": "view",
      "type": "function"
    }
  ],
  "bytecode": "0x608060405234801561001057600080fd5b506100556040518060400160405280600b81526020017f43616e646964617465203100000000000000000000000000000000000000000081525061009e60201b60201c565b6100996040518060400160405280600b81526020017f43616e646964617465203200000000000000000000000000000000000000000081525061009e60201b60201c565b6102a5565b600160008154809291906100b1906101fb565b9190505550604051806060016040528060015481526020018281526020016000815250600080600154815260200190815260200160002060008201518160000155602082015181600101908051906020019061010e92919061011f565b506040820151816002015590505050565b82805461012b90610273565b90600052602060002090601f01602090048101928261014d5760008555610194565b82601f1061016657805160ff1916838001178555610194565b82800160010185558215610194579182015b82811115610193578251825591602001919060010190610178565b5b5090506101a191906101a5565b5090565b5b808211156101be5760008160009055506001016101a6565b5090565b7f4e487b7100000000000000000000000000000000000000000000000000000000600052601160045260246000fd5b6000819050919050565b6000610206826101f1565b91507fffffffffffffffffffffffffffffffffffffffffffffffffffffffffffffffff821415610239576102386101c2565b5b600182019050919050565b7f4e487b7100000000000000000000000000000000000000000000000000000000600052602260045260246000fd5b6000600282049050600182168061028b57607f821691505b6020821081141561029f5761029e610244565b5b50919050565b61041c806102b46000396000f3fe608060405234801561001057600080fd5b50600436106100415760003560e01c80633477ee2e146100465780636c8381f814610078578063a9a981a314610096575b600080fd5b610060600480360381019061005b9190610235565b6100b4565b60405161006f9392919061030a565b60405180910390f35b610080610166565b60405161008d9190610348565b60405180910390f35b61009e6101f4565b6040516100ab919061036a565b60405180910390f35b60006020528060005260406000206000915090508060000154908060010180546100dd906103b4565b80601f0160208091040260200160405190810160405280929190818152602001828054610109906103b4565b80156101565780601f1061012b57610100808354040283529160200191610156565b820191906000526020600020905b81548152906001019060200180831161013957829003601f168201915b5050505050908060020154905083565b60028054610173906103b4565b80601f016020809104026020016040519081016040528092919081815260200182805461019f906103b4565b80156101ec5780601f106101c1576101008083540402835291602001916101ec565b820191906000526020600020905b8154815290600101906020018083116101cf57829003601f168201915b505050505081565b60015481565b600080fd5b6000819050919050565b610212816101ff565b811461021d57600080fd5b50565b60008135905061022f81610209565b92915050565b60006020828403121561024b5761024a6101fa565b5b600061025984828501610220565b91505092915050565b61026b816101ff565b82525050565b600081519050919050565b600082825260208201905092915050565b60005b838110156102ab578082015181840152602081019050610290565b838111156102ba576000848401525b50505050565b6000601f19601f8301169050919050565b60006102dc82610271565b6102e6818561027c565b93506102f681856020860161028d565b6102ff816102c0565b840191505092915050565b600060608201905061031f6000830186610262565b818103602083015261033181856102d1565b90506103406040830184610262565b949350505050565b6000602082019050818103600083015261036281846102d1565b905092915050565b600060208201905061037f6000830184610262565b92915050565b7f4e487b7100000000000000000000000000000000000000000000000000000000600052602260045260246000fd5b600060028204905060018216806103cc57607f821691505b602082108114156103e0576103df610385565b5b5091905056fea264697066735822122023ae68b13bd1855ee61913d7b32015ee6cebe250a585f6d44f997e13cda28a4a64736f6c634300080a0033",
  "immutableReferences": {},
  "source": "// SPDX-License-Identifier: MIT\r\npragma solidity ^0.8.6;\r\n\r\ncontract Election {\r\n    // model of candidate\r\n    struct Candidate {\r\n        uint256 id;\r\n        string name;\r\n        uint256 voteCount;\r\n    }\r\n\r\n    //stroring and fetching candidate\r\n    mapping(uint256 => Candidate) public candidates;\r\n    // candidate counts\r\n    uint256 public candidateCount;\r\n\r\n    // adding candidate\r\n    function addCandidate(string memory _name) private {\r\n        candidateCount++;\r\n        // 0 because intital vote count of any candidate is 0\r\n        candidates[candidateCount] = Candidate(candidateCount, _name, 0);\r\n    }\r\n\r\n    // Constructor\r\n    // -> read candiate and store candidate\r\n    string public candidate;\r\n\r\n    constructor() {\r\n        addCandidate(\"Candidate 1\");\r\n        addCandidate(\"Candidate 2\");\r\n    }\r\n}\r\n",
  "sourcePath": "D:\\Course\\BlockChain\\Projects\\proj3-with-frontend\\contracts\\Election.sol",
  "compiler": {
    "name": "solc",
    "version": "0.8.10+commit.fc410830.Emscripten.clang"
  },
  "schemaVersion": "3.4.3",
  "updatedAt": "2021-12-11T09:48:43.950Z",
  "devdoc": {
    "kind": "dev",
    "methods": {},
    "version": 1
  },
  "userdoc": {
    "kind": "user",
    "methods": {},
    "version": 1
  }
}